:100000000C9434000C943E000C943E000C943E0082
:100010000C943E000C943E000C943E000C943E0068
:100020000C943E000C943E000C943E000C943E0058
:100030000C943E000C943E000C943E000C943E0048
:100040000C943E000C943E000C943E000C943E0038
:100050000C943E000C943E000C943E000C943E0028
:100060000C943E000C943E0011241FBECFEFD8E04C
:10007000DEBFCDBF0E9440000C945D000C940000D8
:100080008FEF84B98CEF8AB981E085B921E090E8DF
:100090004899FECF499908C085B1813011F495B9CE
:1000A000F7CF85B1869507C085B1803811F425B9A1
:0E00B000EFCF85B1880F85B9EBCFF894FFCF65
:00000001FF
